{
  "contractName": "Vote",
  "abi": [
    {
      "constant": true,
      "inputs": [],
      "name": "getCandidates",
      "outputs": [
        {
          "name": "",
          "type": "bytes32[50]"
        }
      ],
      "payable": false,
      "stateMutability": "view",
      "type": "function"
    },
    {
      "constant": false,
      "inputs": [
        {
          "name": "candidateName",
          "type": "bytes32"
        }
      ],
      "name": "addCandidate",
      "outputs": [
        {
          "name": "",
          "type": "string"
        }
      ],
      "payable": false,
      "stateMutability": "nonpayable",
      "type": "function"
    },
    {
      "constant": true,
      "inputs": [
        {
          "name": "",
          "type": "bytes32"
        }
      ],
      "name": "votes",
      "outputs": [
        {
          "name": "",
          "type": "uint256"
        }
      ],
      "payable": false,
      "stateMutability": "view",
      "type": "function"
    },
    {
      "constant": true,
      "inputs": [
        {
          "name": "",
          "type": "uint256"
        }
      ],
      "name": "counter",
      "outputs": [
        {
          "name": "",
          "type": "uint256"
        }
      ],
      "payable": false,
      "stateMutability": "view",
      "type": "function"
    },
    {
      "inputs": [
        {
          "name": "candidateName",
          "type": "bytes32"
        }
      ],
      "payable": false,
      "stateMutability": "view",
      "type": "function",
      "constant": true,
      "name": "getNumberOfVotes",
      "outputs": [
        {
          "name": "",
          "type": "uint256"
        }
      ]
    },
    {
      "inputs": [
        {
          "name": "",
          "type": "uint256"
        }
      ],
      "payable": false,
      "stateMutability": "view",
      "type": "function",
      "constant": true,
      "name": "candidateList",
      "outputs": [
        {
          "name": "",
          "type": "bytes32"
        }
      ]
    },
    {
      "constant": false,
      "inputs": [
        {
          "name": "candidateName",
          "type": "bytes32"
        }
      ],
      "name": "voteForCandidate",
      "outputs": [],
      "payable": false,
      "stateMutability": "nonpayable",
      "type": "function"
    },
    {
      "constant": true,
      "inputs": [],
      "name": "getLastCandidate",
      "outputs": [
        {
          "name": "",
          "type": "bytes32"
        }
      ],
      "payable": false,
      "stateMutability": "view",
      "type": "function"
    },
    {
      "inputs": [],
      "payable": false,
      "stateMutability": "nonpayable",
      "type": "constructor"
    },
    {
      "anonymous": false,
      "inputs": [
        {
          "indexed": true,
          "name": "_from",
          "type": "address"
        },
        {
          "indexed": false,
          "name": "txt",
          "type": "string"
        }
      ],
      "name": "ReturnValue",
      "type": "event"
    }
  ],
  "bytecode": "0x6060604052341561000f57600080fd5b60006032819055506103e0806100266000396000f30060606040526004361061008e576000357c0100000000000000000000000000000000000000000000000000000000900463ffffffff16806306a49fce14610093578063230d6ed8146100e45780632b38cd961461010b57806361bc221a146101465780638d2d814c1461016f578063b13c744b146101aa578063cc9ab267146101e9578063eb06650a14610210575b600080fd5b341561009e57600080fd5b6100a6610241565b6040518082603260200280838360005b838110156100d15780820151818401526020810190506100b6565b5050505090500191505060405180910390f35b34156100ef57600080fd5b610109600480803560001916906020019091905050610290565b005b341561011657600080fd5b6101306004808035600019169060200190919050506102e1565b6040518082815260200191505060405180910390f35b341561015157600080fd5b6101596102f9565b6040518082815260200191505060405180910390f35b341561017a57600080fd5b6101946004808035600019169060200190919050506102ff565b6040518082815260200191505060405180910390f35b34156101b557600080fd5b6101cb6004808035906020019091905050610324565b60405180826000191660001916815260200191505060405180910390f35b34156101f457600080fd5b61020e60048080356000191690602001909190505061033e565b005b341561021b57600080fd5b61022361036c565b60405180826000191660001916815260200191505060405180910390f35b610249610388565b6000603280602002604051908101604052809291908260328015610286576020028201915b8154600019168152602001906001019080831161026e575b5050505050905090565b8060006032546032811015156102a257fe5b01816000191690555060006033600083600019166000191681526020019081526020016000208190555060326000815480929190600101919050555050565b60336020528060005260406000206000915090505481565b60325481565b6000603360008360001916600019168152602001908152602001600020549050919050565b60008160328110151561033357fe5b016000915090505481565b6033600082600019166000191681526020019081526020016000206000815480929190600101919050555050565b60008060016032540360328110151561038157fe5b0154905090565b610640604051908101604052806032905b600080191681526020019060019003908161039957905050905600a165627a7a7230582066c73171bd2db9cb0df2cb37fdb424b37f382aa71ddb53ae9f086a0b746159890029",
  "source": "pragma solidity ^0.4.18;\n\ncontract Vote {\n    bytes32[50] public candidateList;\n    uint public counter;\n    mapping(bytes32 => uint) public votes;\n\n    function Vote() public {\n        counter = 0;\n    }\n    \n    function addCandidate(bytes32 candidateName) public {\n        //require(validCandidate(candidateName));\n        candidateList[counter] = candidateName;\n        votes[candidateName] = 0;\n        counter++;\n    }\n\n    function voteForCandidate(bytes32 candidateName) public {\n        votes[candidateName]++;\n    }\n\n    function getCandidates() public constant returns(bytes32[50]) {\n        return candidateList;\n    }\n\n    function getLastCandidate() public constant returns(bytes32) {\n        return candidateList[counter-1];\n    }\n\n    function getNumberOfVotes(bytes32 candidateName) public constant returns(uint) {\n        return votes[candidateName];\n    }\n    /*\n    function validCandidate(bytes32 candidate) private view returns(bool) {\n        for (uint index = 0; index < candidateList.length; index++) {\n            if (keccak256(candidate) == keccak256(candidateList[index]) ) {\n                return false;\n            }\n        }\n        return true;\n    }\n    */\n}",
  "sourcePath": "/Users/arthurmastropietro/Desktop/Ethereum/Voting/contracts/Vote.sol",
  "compiler": {
    "name": "solc",
    "version": "0.4.18+commit.9cf6e910.Emscripten.clang"
  },
  "schemaVersion": "1.0.1",
  "updatedAt": "2017-12-02T14:46:57.997Z"
}